:020000040000fa
:080000000001040000000000f3
:020000040000fa
:04000800b60200003c
:020000040000fa
:04000c00b602000038
:020000040000fa
:04001000b602000034
:020000040000fa
:04001400b602000030
:020000040000fa
:04001800b60200002c
:020000040000fa
:04001c00b602000028
:020000040000fa
:04002000b602000024
:020000040000fa
:04002400b602000020
:020000040000fa
:040028002c020000a6
:020000040000fa
:04002c00b602000018
:020000040000fa
:04003000b602000014
:020000040000fa
:04003400b602000010
:020000040000fa
:04003800b60200000c
:020000040000fa
:04003c00b602000008
:020000040000fa
:04004000b602000004
:020000040000fa
:04004400b602000000
:020000040000fa
:04004800b6020000fc
:020000040000fa
:04004c00c8010000e7
:020000040000fa
:04005000b6020000f4
:020000040000fa
:04005400b6020000f0
:020000040000fa
:04005800b6020000ec
:020000040000fa
:04005c00b6020000e8
:020000040000fa
:04006000b6020000e4
:020000040000fa
:04006400b6020000e0
:020000040000fa
:040068005a02000038
:020000040000fa
:04006c00b6020000d8
:020000040000fa
:04007000b6020000d4
:020000040000fa
:04007400b6020000d0
:020000040000fa
:04007800b6020000cc
:020000040000fa
:04007c00b6020000c8
:020000040000fa
:04008000b6020000c4
:020000040000fa
:0400840088020000ee
:020000040000fa
:04008800b6020000bc
:020000040000fa
:04008c00b6020000b8
:020000040000fa
:04009000b6020000b4
:020000040000fa
:04009400b6020000b0
:020000040000fa
:04009800b6020000ac
:020000040000fa
:04009c00b6020000a8
:020000040000fa
:0400a000b6020000a4
:020000040000fa
:0400a400b6020000a0
:020000040000fa
:0400a800b60200009c
:020000040000fa
:0400ac00b602000098
:020000040000fa
:0400b000b602000094
:020000040000fa
:0400b400b602000090
:020000040000fa
:0400b800b60200008c
:020000040000fa
:0400bc00b602000088
:020000040000fa
:0400c000b602000084
:020000040000fa
:0400c400b602000080
:020000040000fa
:0400c800b60200007c
:020000040000fa
:0400cc00b602000078
:020000040000fa
:0400d000b602000074
:020000040000fa
:0400d400b602000070
:020000040000fa
:0400d800b60200006c
:020000040000fa
:04010800b60200003b
:020000040000fa
:04010c00b602000037
:020000040000fa
:04011000b602000033
:020000040000fa
:04011400b60200002f
:020000040000fa
:04011800b60200002b
:020000040000fa
:04011c00b602000027
:020000040000fa
:04012000b602000023
:020000040000fa
:04012400b60200001f
:020000040000fa
:040128002c020000a5
:020000040000fa
:04012c00b602000017
:020000040000fa
:04013000b602000013
:020000040000fa
:04013400b60200000f
:020000040000fa
:04013800b60200000b
:020000040000fa
:04013c00b602000007
:020000040000fa
:04014000b602000003
:020000040000fa
:04014400b6020000ff
:020000040000fa
:04014800b6020000fb
:020000040000fa
:04014c00c8010000e6
:020000040000fa
:04015000b6020000f3
:020000040000fa
:04015400b6020000ef
:020000040000fa
:04015800b6020000eb
:020000040000fa
:04015c00b6020000e7
:020000040000fa
:04016000b6020000e3
:020000040000fa
:04016400b6020000df
:020000040000fa
:040168005a02000037
:020000040000fa
:04016c00b6020000d7
:020000040000fa
:04017000b6020000d3
:020000040000fa
:04017400b6020000cf
:020000040000fa
:04017800b6020000cb
:020000040000fa
:04017c00b6020000c7
:020000040000fa
:04018000b6020000c3
:020000040000fa
:0401840088020000ed
:020000040000fa
:04018800b6020000bb
:020000040000fa
:04018c00b6020000b7
:020000040000fa
:04019000b6020000b3
:020000040000fa
:04019400b6020000af
:020000040000fa
:04019800b6020000ab
:020000040000fa
:04019c00b6020000a7
:020000040000fa
:0401a000b6020000a3
:020000040000fa
:0401a400b60200009f
:020000040000fa
:0401a800b60200009b
:020000040000fa
:0401ac00b602000097
:020000040000fa
:0401b000b602000093
:020000040000fa
:0401b400b60200008f
:020000040000fa
:0401b800b60200008b
:020000040000fa
:0401bc00b602000087
:020000040000fa
:0401c000b602000083
:020000040000fa
:0401c400b60200007f
:020000040000fa
:0401c800b60200007b
:020000040000fa
:0401cc00b602000077
:020000040000fa
:0401d000b602000073
:020000040000fa
:0401d400b60200006f
:020000040000fa
:0401d800b60200006b
:020000040000fa
:100200002f8020000eff20000e018800000000005b
:10021000000020000000e000020032000001200089
:100220002002880014000700d20007000000e00050
:1002300003003a00603a200001002000020037006d
:100240000000200001002000810f7000010032003a
:1002500014000700000020000000e000020032004f
:100260000000020000000000bc02020000000000cc
:100270000040da000000fe004440a9000000200019
:100280000000e0000300320000002000a001880010
:100290004440a800000006008a1f78008b1f7800e9
:1002a0000000060091018800800478000000eb0047
:1002b0001a003700e284440032a0b4009905ba0065
:1002c000e284440032a0b4009906ba00e2844400fb
:1002d00032a0b4000006eb00476fde00fd07b2005d
:1002e000636ce10003003a00ebff07000000eb0045
:1002f0000a003700606ce10004003a00005deb008a
:100300008b05e900fdff3e00040037006168e10055
:10031000010032000086eb000b00070019c7ba008d
:100320001905ba000e04e00003003a000a00e000dc
:10033000e0ff3a0000000600fe07b2009e018800c0
:100340008a047800f5ff3700395dba008b05e900b3
:100350000c003200295dba008b05e900080032006c
:100360000c00e00003003a00e284440032a0b40034
:10037000f5ff370019ddba008b05e900faff3a00f6
:100380008904e800e184440032a0b40000000600c3
:100390003600f800809fbe00829fbe00849fbe0092
:1003a000869fbe003400f80000002000a0018800f5
:1003b0000000fa00901080000040780000e8b700cc
:1003c000018020009140780010c4b30080cf50001d
:1003d00001003a00ca02a800018020009140780084
:1003e00020c4b30080cf500001003a00ca02a90027
:1003f00000c8bf00bb000700005327000100200019
:10040000c4000700d0c0b300b600070000532700a7
:1004100001002000bf000700a0c0b300b10007002a
:10042000001c2e00410e2000ba0007000e22a8007a
:100430000e22a9008520a9000080fa003400f900ee
:100440004f03be004f02be004f01be004f00be0072
:100450003600f900004006003600f800809fbe001c
:10046000829fbe00849fbe00869fbe003400f800bd
:1004700000002000a00188000000fa00ca02a800c5
:10048000001c2e00410e2000a2000700ca02a90095
:100490008400a9000080fa003400f9004f03be0078
:1004a0004f02be004f01be004f00be003600f900f3
:1004b000004006003600f800809fbe00829fbe000c
:1004c000849fbe00869fbe003400f800000020001c
:1004d000a00188000000fa00ca02a800001c2e003b
:1004e000410e20008b000700ca02a9008600a90067
:1004f0000080fa003400f9004f03be004f02be0036
:100500004f01be004f00be003600f900004006005b
:100510003600f800809fbe00829fbe00849fbe0010
:10052000869fbe003400f80000002000a001880073
:100530000000fa00ca02a800001c2e00410e200094
:1005400074000700ca02a90086e0a9000080fa0032
:100550003400f9004f03be004f02be004f01be0041
:100560004f00be003600f900004006000040da00ef
:080570000000fe000000050080
:020000040000fa
:100578000000fa0008000700ca02a900803821001c
:10058800000c8800409c2000300c8800c0d421005a
:10059800600c8800ffff37000000fa00f0ff210020
:1005a80040158800d202a900d222a900d242a9008f
:1005b800c162a800d302a800d322a800c622ef0077
:1005c800ca22ef00d622ef00f070220060088800ef
:1005d8000621ef008221ef008021ef00210c80002e
:1005e80080ff2f00008060006000b300200c8800ae
:1005f8008461a9008821ef008621ef00510c80005a
:1006080080ff2f00008060006000b300500c88005d
:100618008a61a9008e21ef008c21ef00810c8000f7
:1006280080ff2f00008060006000b300800c88000d
:100638009061a9001061a90081088000f0fc2f00da
:1006480000806000800888001021a90011e1a8003e
:100658000de2a8000da2a9000d42a9000ce2a90014
:100668000cc2a9000ca2a9006110800090ff2f0005
:1006780000806000601088000c02a9000fe2a8004a
:100688000f62a90071108000f0f32f000080600055
:10069800701088000ea2a9000e22a90000022000f6
:1006a800a01088000de2a8000f42a8008d20a80025
:1006b8008400a9008c00a8008200a9008600a90077
:1006c8008e00a8008220a90086e0a9008ee0a8007c
:1006d8008240a9000080fa00000006000200fa002b
:1006e800004f7800000000007110800000202000fa
:1006f800008060000000e000fbff3a001e00fb00e5
:0c070800801088000080fa00000006004d
:020000040000fa
:10071400f03fb1000180b10006003500ee0309008e
:1007240000000000403fb1000180b100fbff3d002c
:100734001000b000203fb000020035000080090026
:080744000000000000000600a7
:020000040000fa
:10074c000008000002000000000000000000000093
:020000040000fa
:0200000401f009
:04000000e3bf00005a
:020000040000fa
:0200000401f009
:04000400ff7f00007a
:020000040000fa
:0200000401f009
:040008005fff000096
:020000040000fa
:0200000401f009
:04001400ffffff00eb
:020000040000fa
:0200000401f009
:04001800ffff0000e6
:00000001FF
