:020000040000fa
:080000000001040000000000f3
:020000040000fa
:0400080052020000a0
:020000040000fa
:04000c00520200009c
:020000040000fa
:040010005202000098
:020000040000fa
:040014005202000094
:020000040000fa
:040018005202000090
:020000040000fa
:04001c00520200008c
:020000040000fa
:040020005202000088
:020000040000fa
:040024005202000084
:020000040000fa
:04002800c80100000b
:020000040000fa
:04002c00520200007c
:020000040000fa
:040030005202000078
:020000040000fa
:040034005202000074
:020000040000fa
:040038005202000070
:020000040000fa
:04003c00520200006c
:020000040000fa
:040040005202000068
:020000040000fa
:040044005202000064
:020000040000fa
:040048005202000060
:020000040000fa
:04004c00520200005c
:020000040000fa
:040050005202000058
:020000040000fa
:040054005202000054
:020000040000fa
:040058005202000050
:020000040000fa
:04005c00520200004c
:020000040000fa
:040060005202000048
:020000040000fa
:040064005202000044
:020000040000fa
:04006800f60100009d
:020000040000fa
:04006c00520200003c
:020000040000fa
:040070005202000038
:020000040000fa
:040074005202000034
:020000040000fa
:040078005202000030
:020000040000fa
:04007c00520200002c
:020000040000fa
:040080005202000028
:020000040000fa
:040084002402000052
:020000040000fa
:040088005202000020
:020000040000fa
:04008c00520200001c
:020000040000fa
:040090005202000018
:020000040000fa
:040094005202000014
:020000040000fa
:040098005202000010
:020000040000fa
:04009c00520200000c
:020000040000fa
:0400a0005202000008
:020000040000fa
:0400a4005202000004
:020000040000fa
:0400a8005202000000
:020000040000fa
:0400ac0052020000fc
:020000040000fa
:0400b00052020000f8
:020000040000fa
:0400b40052020000f4
:020000040000fa
:0400b80052020000f0
:020000040000fa
:0400bc0052020000ec
:020000040000fa
:0400c00052020000e8
:020000040000fa
:0400c40052020000e4
:020000040000fa
:0400c80052020000e0
:020000040000fa
:0400cc0052020000dc
:020000040000fa
:0400d00052020000d8
:020000040000fa
:0400d40052020000d4
:020000040000fa
:0400d80052020000d0
:020000040000fa
:04010800520200009f
:020000040000fa
:04010c00520200009b
:020000040000fa
:040110005202000097
:020000040000fa
:040114005202000093
:020000040000fa
:04011800520200008f
:020000040000fa
:04011c00520200008b
:020000040000fa
:040120005202000087
:020000040000fa
:040124005202000083
:020000040000fa
:04012800c80100000a
:020000040000fa
:04012c00520200007b
:020000040000fa
:040130005202000077
:020000040000fa
:040134005202000073
:020000040000fa
:04013800520200006f
:020000040000fa
:04013c00520200006b
:020000040000fa
:040140005202000067
:020000040000fa
:040144005202000063
:020000040000fa
:04014800520200005f
:020000040000fa
:04014c00520200005b
:020000040000fa
:040150005202000057
:020000040000fa
:040154005202000053
:020000040000fa
:04015800520200004f
:020000040000fa
:04015c00520200004b
:020000040000fa
:040160005202000047
:020000040000fa
:040164005202000043
:020000040000fa
:04016800f60100009c
:020000040000fa
:04016c00520200003b
:020000040000fa
:040170005202000037
:020000040000fa
:040174005202000033
:020000040000fa
:04017800520200002f
:020000040000fa
:04017c00520200002b
:020000040000fa
:040180005202000027
:020000040000fa
:040184002402000051
:020000040000fa
:04018800520200001f
:020000040000fa
:04018c00520200001b
:020000040000fa
:040190005202000017
:020000040000fa
:040194005202000013
:020000040000fa
:04019800520200000f
:020000040000fa
:04019c00520200000b
:020000040000fa
:0401a0005202000007
:020000040000fa
:0401a4005202000003
:020000040000fa
:0401a80052020000ff
:020000040000fa
:0401ac0052020000fb
:020000040000fa
:0401b00052020000f7
:020000040000fa
:0401b40052020000f3
:020000040000fa
:0401b80052020000ef
:020000040000fa
:0401bc0052020000eb
:020000040000fa
:0401c00052020000e7
:020000040000fa
:0401c40052020000e3
:020000040000fa
:0401c80052020000df
:020000040000fa
:0401cc0052020000db
:020000040000fa
:0401d00052020000d7
:020000040000fa
:0401d40052020000d3
:020000040000fa
:0401d80052020000cf
:020000040000fa
:100200000f8020000eff20000e018800000000007b
:10021000000020000000e000020032000001200089
:100220002002880014000700a00007000000e00082
:1002300003003a0000002000010020000200370007
:100240000000200001002000810f7000010032003a
:1002500014000700000020000000e000020032004f
:100260000000020000000000580202000000000030
:100270000040da000000fe004440a9000000200019
:100280000000e0000300320000002000a001880010
:100290004440a800000006008a1f78008b1f7800e9
:1002a0000000060091018800800478000000eb0047
:1002b0001a003700e284440032a0b4009905ba0065
:1002c000e284440032a0b4009906ba00e2844400fb
:1002d00032a0b4000006eb00476fde00fd07b2005d
:1002e000636ce10003003a00ebff07000000eb0045
:1002f0000a003700606ce10004003a00005deb008a
:100300008b05e900fdff3e00040037006168e10055
:10031000010032000086eb000b00070019c7ba008d
:100320001905ba000e04e00003003a000a00e000dc
:10033000e0ff3a0000000600fe07b2009e018800c0
:100340008a047800f5ff3700395dba008b05e900b3
:100350000c003200295dba008b05e900080032006c
:100360000c00e00003003a00e284440032a0b40034
:10037000f5ff370019ddba008b05e900faff3a00f6
:100380008904e800e184440032a0b40000000600c3
:100390003600f800809fbe00829fbe00849fbe0092
:1003a000869fbe003400f80000002000a0018800f5
:1003b0000000fa00ca02a800001c2e00410e200016
:1003c0004c000700ca02a9008400a9000080fa00be
:1003d0003400f9004f03be004f02be004f01be00c3
:1003e0004f00be003600f900004006003600f8005d
:1003f000809fbe00829fbe00849fbe00869fbe007d
:100400003400f80000002000a00188000000fa007d
:10041000ca02a800001c2e00410e20003500070073
:10042000ca02a9008600a9000080fa003400f90081
:100430004f03be004f02be004f01be004f00be0082
:100440003600f900004006003600f800809fbe002c
:10045000829fbe00849fbe00869fbe003400f800cd
:1004600000002000a00188000000fa00ca02a800d5
:10047000001c2e00410e20001e000700ca02a90029
:1004800086e0a9000080fa003400f9004f03be00a6
:100490004f02be004f01be004f00be003600f90003
:1004a000004006000040da000000fe0000000500e9
:020000040000fa
:1004b0000000fa00f0ff210040158800c622ef007e
:1004c000d222ef00ca22ef00d622ef008400a9005a
:1004d0008c00a8008200a9008600a9008e00a80058
:1004e0008220a90086e0a9008ee0a8008240a90031
:0404f000ffff3700d3
:020000040000fa
:1004f400f03fb1000180b10006003500ee030900b1
:1005040000000000403fb1000180b100fbff3d004e
:100514001000b000203fb000020035000080090048
:080524000000000000000600c9
:020000040000fa
:0200000401f009
:04000000e3bf00005a
:020000040000fa
:0200000401f009
:04000400ff7f00007a
:020000040000fa
:0200000401f009
:040008005fff000096
:020000040000fa
:0200000401f009
:04001400ffffff00eb
:020000040000fa
:0200000401f009
:04001800ffff0000e6
:00000001FF
