:020000040000fa
:080000000001040000000000f3
:020000040000fa
:04000800fc030000f5
:020000040000fa
:04000c00fc030000f1
:020000040000fa
:04001000fc030000ed
:020000040000fa
:04001400fc030000e9
:020000040000fa
:04001800fc030000e5
:020000040000fa
:04001c00fc030000e1
:020000040000fa
:04002000fc030000dd
:020000040000fa
:04002400fc030000d9
:020000040000fa
:04002800c80100000b
:020000040000fa
:04002c00fc030000d1
:020000040000fa
:04003000fc030000cd
:020000040000fa
:04003400d0020000f6
:020000040000fa
:04003800fc030000c5
:020000040000fa
:04003c00fc030000c1
:020000040000fa
:04004000fc030000bd
:020000040000fa
:04004400fc030000b9
:020000040000fa
:04004800fc030000b5
:020000040000fa
:04004c002403000089
:020000040000fa
:04005000fc030000ad
:020000040000fa
:04005400fc030000a9
:020000040000fa
:04005800fc030000a5
:020000040000fa
:04005c00fc030000a1
:020000040000fa
:04006000fc0300009d
:020000040000fa
:04006400fc03000099
:020000040000fa
:040068002002000072
:020000040000fa
:04006c00fc03000091
:020000040000fa
:04007000fc0300008d
:020000040000fa
:04007400fc03000089
:020000040000fa
:04007800fc03000085
:020000040000fa
:04007c00ec02000092
:020000040000fa
:040080000803000071
:020000040000fa
:0400840078020000fe
:020000040000fa
:04008800fc03000075
:020000040000fa
:04008c00fc03000071
:020000040000fa
:04009000fc0300006d
:020000040000fa
:04009400fc03000069
:020000040000fa
:04009800fc03000065
:020000040000fa
:04009c00fc03000061
:020000040000fa
:0400a000fc0300005d
:020000040000fa
:0400a400fc03000059
:020000040000fa
:0400a800fc03000055
:020000040000fa
:0400ac00fc03000051
:020000040000fa
:0400b000fc0300004d
:020000040000fa
:0400b400fc03000049
:020000040000fa
:0400b800fc03000045
:020000040000fa
:0400bc00fc03000041
:020000040000fa
:0400c000fc0300003d
:020000040000fa
:0400c400fc03000039
:020000040000fa
:0400c800fc03000035
:020000040000fa
:0400cc00fc03000031
:020000040000fa
:0400d000fc0300002d
:020000040000fa
:0400d400fc03000029
:020000040000fa
:0400d800fc03000025
:020000040000fa
:04010800fc030000f4
:020000040000fa
:04010c00fc030000f0
:020000040000fa
:04011000fc030000ec
:020000040000fa
:04011400fc030000e8
:020000040000fa
:04011800fc030000e4
:020000040000fa
:04011c00fc030000e0
:020000040000fa
:04012000fc030000dc
:020000040000fa
:04012400fc030000d8
:020000040000fa
:04012800c80100000a
:020000040000fa
:04012c00fc030000d0
:020000040000fa
:04013000fc030000cc
:020000040000fa
:04013400d0020000f5
:020000040000fa
:04013800fc030000c4
:020000040000fa
:04013c00fc030000c0
:020000040000fa
:04014000fc030000bc
:020000040000fa
:04014400fc030000b8
:020000040000fa
:04014800fc030000b4
:020000040000fa
:04014c002403000088
:020000040000fa
:04015000fc030000ac
:020000040000fa
:04015400fc030000a8
:020000040000fa
:04015800fc030000a4
:020000040000fa
:04015c00fc030000a0
:020000040000fa
:04016000fc0300009c
:020000040000fa
:04016400fc03000098
:020000040000fa
:040168002002000071
:020000040000fa
:04016c00fc03000090
:020000040000fa
:04017000fc0300008c
:020000040000fa
:04017400fc03000088
:020000040000fa
:04017800fc03000084
:020000040000fa
:04017c00ec02000091
:020000040000fa
:040180000803000070
:020000040000fa
:0401840078020000fd
:020000040000fa
:04018800fc03000074
:020000040000fa
:04018c00fc03000070
:020000040000fa
:04019000fc0300006c
:020000040000fa
:04019400fc03000068
:020000040000fa
:04019800fc03000064
:020000040000fa
:04019c00fc03000060
:020000040000fa
:0401a000fc0300005c
:020000040000fa
:0401a400fc03000058
:020000040000fa
:0401a800fc03000054
:020000040000fa
:0401ac00fc03000050
:020000040000fa
:0401b000fc0300004c
:020000040000fa
:0401b400fc03000048
:020000040000fa
:0401b800fc03000044
:020000040000fa
:0401bc00fc03000040
:020000040000fa
:0401c000fc0300003c
:020000040000fa
:0401c400fc03000038
:020000040000fa
:0401c800fc03000034
:020000040000fa
:0401cc00fc03000030
:020000040000fa
:0401d000fc0300002c
:020000040000fa
:0401d400fc03000028
:020000040000fa
:0401d800fc03000024
:020000040000fa
:100200008faa20000eff20000e01880000000000d1
:10021000000020000000e000020032000001200089
:100220002002880014000700750107000000e000ac
:1002300003003a00e009230001002000020037001b
:100240000000200001002000810f7000010032003a
:1002500014000700000020000000e000020032004f
:1002600000000200000000001a1a02000000000056
:100270000040da000000fe004440a9008002200097
:100280000000e0000300320000002000a001880010
:100290004440a800000006008a1f78008b1f7800e9
:1002a0000000060091018800800478000000eb0047
:1002b0001a003700e284440032a0b4009905ba0065
:1002c000e284440032a0b4009906ba00e2844400fb
:1002d00032a0b4000006eb00476fde00fd07b2005d
:1002e000636ce10003003a00ebff07000000eb0045
:1002f0000a003700606ce10004003a00005deb008a
:100300008b05e900fdff3e00040037006168e10055
:10031000010032000086eb000b00070019c7ba008d
:100320001905ba000e04e00003003a000a00e000dc
:10033000e0ff3a0000000600fe07b2009e018800c0
:100340008a047800f5ff3700395dba008b05e900b3
:100350000c003200295dba008b05e900080032006c
:100360000c00e00003003a00e284440032a0b40034
:10037000f5ff370019ddba008b05e900faff3a00f6
:100380008904e800e184440032a0b40000000600c3
:100390003600f800809fbe00829fbe00849fbe0092
:1003a000869fbe003400f80000002000a0018800f5
:1003b0000000fa00304080000000e00006003a0033
:1003c0000021ef000080eb001008880010002000e2
:1003d000304088001100370030408000e10f5000ad
:1003e0000e003a00000880008000eb000001be0013
:1003f000c068280071042000020107000000780096
:100400006040880061408000d02e2000808f500026
:1004100001003e000c28ef000628ef008400a90030
:100420000080fa003400f9004f03be004f02be0006
:100430004f01be004f00be003600f900004006002c
:100440003600f800809fbe00829fbe00849fbe00e1
:10045000869fbe003400f80000002000a001880044
:100460000000fa00104080000000e00006003a00a2
:100470001421ef000080eb00d0088800100020005d
:10048000104088001100370010408000e10f50003c
:100490000e003a00a00880008000eb000001be00c2
:1004a000c068280071042000d60007000000780012
:1004b0004040880041408000d02e2000808f5000b6
:1004c00001003e000828ef000228ef008600a90086
:1004d0000080fa003400f9004f03be004f02be0056
:1004e0004f01be004f00be003600f900004006007c
:1004f0003600f800809fbe00829fbe00849fbe0031
:10050000869fbe003400f80000002000a001880093
:100510000000fa00204080000000e00006003a00e1
:100520001821ef000080eb00e00888001000200098
:10053000204088001100370020408000e10f50006b
:100540000e003a00c00880008000eb000001be00f1
:10055000c068280071042000aa000700000078008d
:100560005040880051408000d02e2000808f5000e5
:1005700001003e000a28ef000428ef0086e0a900f1
:100580000080fa003400f9004f03be004f02be00a5
:100590004f01be004f00be003600f90000400600cb
:1005a000801f78003400f80000002000a0018800bf
:1005b0000000fa000080eb00000888000080eb00db
:1005c000100888008460a9000080fa003400f90057
:1005d0004f00780000400600801f78003400f800cb
:1005e00000002000a00188000000fa000080eb005d
:1005f000a00888000080eb00d008880086a0a90031
:100600000080fa003400f9004f0078000040060036
:10061000801f78003400f80000002000a00188004e
:100620000000fa000080eb00c00888000080eb00aa
:10063000e008880086c0a9000080fa003400f900b4
:100640004f007800004006003600f800809fbe0092
:10065000829fbe00849fbe00869fbe003400f800cb
:1006600000002000a00188000000fa009010800027
:10067000004078001ae8b700a1812000914078007e
:1006800050c4b30080cf500003003a001000200097
:10069000104388004d003700a18120009140780070
:1006a00040c4b30080cf500002003a006228ef003f
:1006b00046003700a181200091407800b0c3b3000c
:1006c00080cf50002f003200a1812000914078009f
:1006d000f0c2b30080cf500004003a00f042800026
:1006e0000000e800f042880038003700f042800047
:1006f0000000e00009003a00c0428000a281200012
:1007000012417800918320008100400082487800e7
:100710000000e800c04288002c003700f042800052
:10072000e10f500009003a00d0428000a281200071
:100730001241780031842000810040008248780016
:100740000000e800d042880020003700f04280001e
:10075000e20f500009003a00e0428000a281200030
:1007600012417800d1842000810040008248780046
:100770000000e800e0428800140037005e28ef0027
:1007800012003700a181200091407800b0c3b3006f
:1007900080cf50000d003a005e28ef005828ef008f
:1007a0005a28ef005c28ef009083200082040700a5
:1007b00089110700308420007f040700861107009c
:1007c000d08420007c040700831107000e22a800bb
:1007d0000e22a9008520a9000080fa003400f9004b
:1007e0004f03be004f02be004f01be004f00be00cf
:1007f0003600f900004006000040da000000fe006c
:1008000000000500839f68000100e00002003d0039
:1008100060001000e08018000300e00002003d00ce
:1008200060011100e08119005f0007004f00e00047
:1008300002003b0060001000e0801800000006008d
:1008400014002000bd033700f4ff2f00bb03370066
:100850000001be003f0007000470a70003f0a100e4
:100860006509b100160032000d0035006828e1006e
:1008700006003500f0ff2f00f1ff27000300e00025
:1008800013003b00010028000000050000004000ac
:10089000818048008502e900fcff3a00080037002b
:1008a000f88f420002003c008000eb0000000500d1
:1008b0008100d1000080d3008502e800fcff3a00ef
:1008c0000300e00002003b0060001000e080180020
:1008d000000006000001be001e0007000470a70013
:1008e00003f0a10003f8a30013003a006509b1006a
:1008f00010003200090035006928e10002003500cf
:100900000100280000000500000040008180480030
:100910008502e900fcff3a0000000600f88f420063
:10092000050035008100d1000080d3008502e80079
:10093000fcff3a00000006008000eb00000005000c
:100940004f89de0082017800970337006011b800fc
:10095000a5033700c70ade00f107b200f50fb200a9
:1009600008003200e1cf4200020032000170a00016
:1009700024000500810f700001003200040805000a
:1009800044000500810f700002003a0014000500c9
:100990008502e9000000400081c04800fcff3b00e8
:1009a0000170a000240005006022b80006022000ab
:1009b0000000d0008180d2000482d2008582d20063
:1009c0000000a0000202520083825a00030031009e
:1009d0000202420083824a000000a1000603e900ef
:1009e000f3ff3a000000060007f8270007836100c4
:1009f0000638e10004003a00f70720008783610011
:100a00008703710001003a0003f0a200889fbe0036
:100a10008a9fbe008c9fbe00470ade000480a100b2
:100a2000c71ade000580a1000700280007856000c6
:100a300087856100f70f20000720e1009e0032004b
:100a40000728e1009c003200010678000400e00065
:100a5000b4003200f7072000878060000170a0001a
:100a60000500e000c0003200f70720008781610028
:100a70000370a000050652000f003a000b50e10081
:100a80000b0032000308e10002003a000200e1001e
:100a90007e003200020450008384580004003100bc
:100aa0000001fd008101fd008402fd008a05fd00ba
:100ab0006044b800210037000520e10005003d003a
:100ac0000001fd008101fd008402fd008a05fd009a
:100ad000050652007a60e100050035000170a100b2
:100ae0004722dd00848070008a8070006300370038
:100af0006044b800ef02660007ff2f00070666009b
:100b00000500e00006003400f08312008714dd00c9
:100b10000511de00071bdd00060171008519de00ee
:100b20007060e10005003500090478008204780057
:100b3000030178008001eb00700656000b50e100c5
:100b400003003a00020040008380480004003700a0
:100b500060041400e0841c000200580083805800e8
:100b60000188a300060032008100d1000080d3007c
:100b70008984d3000884d3000402e80027003700ea
:100b80000178a30025003a000100e00003003200d4
:100b90008186cf00698656000a0037008c0020004d
:100ba0000000e00004003a000900780088047800a2
:100bb0000004eb00700252008086cf000d06460054
:100bc0000c06e9007060e100060035008000780046
:100bd00009007800880478000004eb0070065600d5
:100be000700252000c00e0000c0034008c08dd00a4
:100bf000f00316000703de00868070000c00dd00a5
:100c0000074bde00060070008c4cdd000743de0061
:100c1000868474000c44dd000c0252006120e10067
:100c20002000350061016000070028008781640012
:100c3000f7ff270087836400070374000300e000c8
:100c40000600320082037300040032000000e80056
:100c5000e08048000188a3000e003a00f70f200052
:100c60000720e1004a003d000170a1004722dd009d
:100c7000810072008a8070000000be004f06be0036
:100c80004f05be004f04be00000006006000b80023
:100c9000faff37008100d1000080d3000402e80091
:100ca000eeff37000401780089017400a1010700fc
:100cb0008a807000f1ff3700f70107000702780013
:100cc0000001fd008101fd00f301070087027800ab
:100cd000850372000778a300040032000001fd00c4
:100ce0008101fd0006020700e4ff37008503620072
:100cf0000768a300080032000b50e1000300320037
:100d0000f0ff2f00f1ff2700dcff37000001fd009e
:100d10008101fd00d9ff37000468a300d7ff32002e
:100d2000faff3700f8ff2700888360000b003a00c5
:100d30000000e00009003a0083036400828373002e
:100d4000020032000200be00ccff37000b50e10071
:100d5000ceff3a000200be00c8ff3700140020009a
:100d6000810064003eff3700f8ff270088836100a0
:100d700004003a000200e00002003a008c00780013
:100d8000beff3700150020008301640039ff3700e3
:100d900001f827000000200081007500b7ff370030
:100da000889fbe008a9fbe008c9fbe001b00200053
:100db0000202be00058668000600280006066600de
:100dc0004709de00f20fb200820032000243e80061
:100dd00080003200c729de00f30fb2007d00320030
:100de0000343e8007b003200f107b2000170a0006d
:100df000f507b2000570a000c708dd004903de005a
:100e0000868070004700dd00c72add004923de0030
:100e1000868272004722dd00030551000403500062
:100e200085835800030031000000400081804800a5
:100e30000a05e9008c1f78008a9fbe00040050005c
:100e4000858058000402420085824a00000040006c
:100e5000818048000005eb000004be006033b8004c
:100e60000406be000d48e1005600310011000900e3
:100e70004dccd8000c01b8000d02b80084814100af
:100e800060824a008283530003045c0084845c0017
:100e900060055d000a00e00025003a00800578004a
:100ea0000d40e1004900310088007800070078001b
:100eb000110009004d88d8000c01b8000d02b800df
:100ec0008481410060824a006003110083835b00db
:100ed00004045c00e0845c000900e00021003a00aa
:100ee0004f01be000300e0002b003200e301600070
:100ef000070673008c8171000100320064007000ed
:100f00004200de004e5edd000c007000c258de00c4
:100f100001e0a00083010700cf017800818071000b
:100f20004f06be004f05be004f04be000000060085
:100f30008c8343000d044c00e0844c0060054d00a0
:100f40000000e9000a00e000d4ff32008c83430077
:100f50000d044c00e0844c0060054d000000e900e9
:100f6000ceff37000c0343008d834b0060044c0020
:100f7000e0844c000000e9000900e000d8ff3200e6
:100f80000c0343008d834b0060044c00e0844c0054
:100f90000000e900d2ff37004200de004e5edd00b7
:100fa0000c007000c258de0001e0a000cf01780004
:100fb0000300e000daff320060001000e08018005b
:100fc000d7ff3700f0ff2f00aaff3700f0ff2f00f8
:100fd000b9ff37000404be002f0107008706780020
:100fe0000004fd008104fd002b010700078366005b
:100ff0000678a300030032000960a7000800be00c5
:101000002c0037000d78a300020032000800be005b
:10101000280037000778a30026003a0001f0a1005d
:1010200009f0a1000668a30003003200f1ff2700c9
:10103000f0ff2f00baff37000d68a3000300320055
:101040000800be008c807000b5ff37000768a30061
:1010500007003a000648a30003003200f1ff270012
:10106000f0ff2f00aeff37000d48a3000300320051
:101070006000b8008c807000a9ff37000748a3000b
:101080000400320001f82700000020008c8070006e
:10109000a3ff3700760107000004fd008104fd0076
:1010a00002057800720107000802be008a0178007c
:1010b00059ff37000160a00012022000325488005e
:1010c00097ff37000100e000120032000500e00049
:1010d00010003200889fbe008a9fbe008c9fbe0019
:1010e0000006eb0001f8a3000300320060001000ce
:1010f000e08018000cf0a00005f8a3000300320007
:1011000060021200e0821a000cf0a2008005eb00e1
:1011100041ff37006000b80002000500038368004b
:101120000700280007036300470ade000480a100cf
:10113000c71ade000580a100f70f20000720e1009c
:10114000420032000728e10040003200889fbe00c4
:101150008a9fbe008c1f7800f107b200f307b2002f
:101160000400e000640032000170a0000500e0000f
:10117000680032000370a00085054200eb07b10053
:101180000204b8000302b8008484440060854a0069
:10119000020ab800848444000a854a00030ab800a1
:1011a00004054500040033000804d0008984d200ff
:1011b0000a85d2008b05e9006158e1003d00350049
:1011c00002102000090161000308200089816100ec
:1011d000f70720008783640008867300c84cde0090
:1011e000c853dd00878474004855de000300e0002a
:1011f0000600320082037600040032008904e80011
:1012000060054d000a88a3000c003a00f70f20008b
:101210000758e10044003d000a70a100c75ddd00f1
:101220000a8575008a007300090078004f0678006f
:101230004f05be004f04be00000006000a05d100a5
:101240008984d3008b05e800f0ff3700881f780001
:101250000604780090000700070278000001fd00f6
:101260008101fd008c000700870278008503720071
:101270000778a300050032000001fd008101fd0098
:101280009f0007004f0478000000060085037200ed
:101290000748a30003003200f0ff2f00f1ff2700f2
:1012a000f8ff37000000200001f827008880700058
:1012b000f4ff3700880178004848dd008081710024
:1012c0004848de00c850dd0001007000c850de0054
:1012d000060478000b017800160007008880700073
:1012e000d2ff37000500e0000500320017002000a3
:1012f0003a0007009dff370081037000f9ff3a00b4
:10130000860078004f0678004f05be004f04be00ef
:101310000000050083037100f9ff32002700200060
:101320002e00070094ff370001f827008680700028
:10133000f4ff37000100e0002600320061011100d7
:101340007810e10023003c006022b8007010e1003a
:101350000400350080027800010078008000eb0076
:10136000700151000200e000090034007003110018
:10137000062add00822ade008603dd0087827200f5
:101380000200de00860bdd00070070008208de0030
:1013900084817100f4ff270004826200848171005f
:1013a00004002800848262006102600005f0a6004b
:1013b0000000060004827100070032000000e8000f
:1013c000e0804800000006000002be006000b80097
:1013d000efff37006000b80000000600889fbe00e5
:1013e0000004eb006138e10016003a000100e00063
:1013f00008003a00c800de004800dd008800200038
:101400000100e00003003a00c800de004800dd00f3
:10141000680444008184cf00e9845400060034004d
:101420008908dd00f08314008703de0087807000e8
:101430000900dd0009044400610214004f04be00ed
:10144000000006000300e00008003a00c811de00ba
:101450004811dd00880020000300e00003003a008e
:10146000c811de004811dd00680444008384cf0009
:10147000e9845400060034008919dd00f08314006b
:101480008713de00878171000911dd000904440023
:10149000e1021400e9ff37002700200001f0a70057
:1014a00017002000470bde00f60fb20004003200e8
:1014b0000643e8000a0032004702b30000000600bd
:1014c00001037800f607b2000603700002003a003c
:1014d0000703b300000006008702b3000000060007
:1014e00001037800f607b200060370000200320024
:1014f0000770a000000006000760a00000000600c2
:101500000478a300040032000578a3000300320031
:101510000168a30001003a000200be000160a000c3
:101520000000060081017000270032008002eb00fd
:1015300001f8a3000300320060001000e0801800f2
:1015400015002000f40720000202420020003400b1
:10155000f7032000870360000604200000036300f7
:1015600002082000000161004700de00c909dd001b
:1015700000807100c708de000600e00008003200ad
:1015800087037100060032001000b0000180b00037
:101590000188a30002003200c108de000402e80056
:1015a000f107b200f30f20000320e10003003d002b
:1015b0004722dd00810072002900370001f8270072
:1015c0000000eb00260037006000b80000000600b5
:1015d000680212007f20e100020034006000b800c1
:1015e0001f0037006011b8007020e10004003500d2
:1015f00080017800010078008000eb00700252004a
:101600000400e00009003400f00312000719dd00b7
:101610008419de000703dd00868171000400de000e
:10162000070bdd00060070008408de00f7ff2700ce
:1016300083836300870371000600280003036300af
:10164000070032000700e00003003a00610160007b
:1016500002817300020032001000b0000180b0006f
:101660000500a6000000060001f0a0000000060032
:101670004f0ade004709de00f107b200f20fb200a8
:101680000b003200f207b1000170a000c708dd00b6
:10169000c901de00838070004700dd000400a60061
:1016a0000000060060001000e08018000000060046
:1016b000810f700001003a00000006008182cf0017
:1016c0000500e00010003e008082cf00ee82420064
:1016d0007028e1000400390007003e008000780017
:1016e0000000eb000e003700708312008600de0061
:1016f0000500dd000a003700708352008600dd001f
:101700000000eb0006003700e28252008508dd0091
:10171000708312000603de00868070000500dd0085
:101720007507b0000501ea000400a60000000600ed
:1017300060001000e080180000000600889fbe00d6
:101740008a9fbe00841f78007c0007004f0078004d
:1017500011003300f0ff2f00838f6c0006003b0068
:10176000040565000a00a7000800370009f0a6007c
:101770001000200008003700820f5400838f5c00a7
:10178000030039001000200001003e00000020008e
:1017900009f0a7000000ea004f05be004f04be009c
:1017a0000000e00000000600881f780003047800b5
:1017b0000300e00007003d0060001000e08018001a
:1017c00060011900e081190002003b0001f02d00ca
:1017d000030037000400070008f0a70001f0a00094
:1017e0004f04780000000600889fbe008a9fbe005c
:1017f0000082700004027100048271002600320031
:101800000004be000200be006011b8006b09200099
:10181000950220000182cf000a0039000541b10085
:101820000082cf00070039000541b1000982cf00d6
:10183000040039000541b1000882cf0001003900e1
:101840000541b10005425200120032000a003b007f
:1018500082817100610164008100d1000080d300a9
:101860008984d3000884d3008b05e8000442e80093
:10187000f7ff3a00070037000804440089844c0051
:1018800000004800818048008b05e9000442e9001f
:10189000f9ff3a00030007004f05be004f04be00e9
:1018a0000000060081002000618055000b003d0013
:1018b0000b00200061fe2f000100e1001d0034003c
:1018c00082817100610164008904d1000884d30021
:1018d0000000e800faff3a00710020006100640097
:1018e000030070000200600009003200610444003f
:1018f000e0844c000988a500050032008b05e80053
:101900006808e10002003a008904d1000884d3008d
:10191000f20f20000258e10005003d00c75ddd0028
:10192000f907b20089807500080078000000060001
:101930000bf827008b007800000005000004be00b3
:1019400004fc07000003be000405be000200be0048
:1019500000fc0700844f7500000006000000fa003c
:1019600068815700cfb897002a0207000080fa006c
:10197000000006004e000700a60007005701070000
:101980007f010700d80007007a0207002502370010
:10199000800078001000200002022000828f50009a
:1019a00004003200e9805000e48f5000010036004e
:1019b0000000eb0000000600889fbe008a1f780030
:1019c000000578000a047800984478000805e800cb
:1019d0000900fb00eeff07000000e000f9ff3a00fd
:1019e000b0c2b30080cf540005003200d0c2b300b3
:1019f0008000eb0080cf540005003a000200370061
:101a00008000eb0001003700110020000804e8000e
:101a10000000eb00030037006a02b9000200520028
:101a20000003b0003801fb0003fd2f00828141005c
:101a3000e98f5100f8ff36000100e00001003a0094
:101a40000000ea004f0578004f04be0000000600c9
:101a500080007800040037003104e00002003a0002
:101a60000000510000000600010178000108a300f9
:101a7000f9ff3a008101780031017800f4ef2f007e
:101a8000020242000281ea0002016200040828000a
:101a900004016100f7ff3200830078000101780043
:101aa0003104e000fdff3a00000051000000060094
:101ab000ec874700889fbe008a9fbe008c9fbe00b7
:101ac0008e1f780000067800010478001807900047
:101ad0002805900098067800cdb79f00b8059000c3
:101ae0003202be002203be000400be000601be009a
:101af0004f18de006011b8008000eb00d0b79f00e7
:101b0000e1b79f00f2b79f0083bf9f008004780079
:101b10000900e000060032006000b8006011b80063
:101b2000040250008582580006035900878359003b
:101b30000e00e000020035000d10a100cdb79f009f
:101b40000900e00005003a004fb097000028a3000c
:101b500002003a000038a300020032008a00e900c7
:101b6000010037008a007800f8815700a2002000a9
:101b700008007800860007000900e00003003a0032
:101b8000cfb097000128a300080032000000e90050
:101b900000814500b1c2b3000900e000010032003d
:101ba000d1c2b30001497800050037000138a30015
:101bb000030032000000e90001c2b3008175780023
:101bc000480190000201e9000001510080804500b9
:101bd0004fb297008a0178000c00780030020700ad
:101be0009c0090000188a30004003200980090003f
:101bf000810f500001003d00010078004f07780080
:101c00004f06be004f05be004f04be00cf00b1001e
:101c1000000006000200fa00889fbe008a9fbe00f6
:101c20008005780001047800020078001801900017
:101c30002805900098007800b1bf9f00b80490007c
:101c40000200e000020035000110a100b1bf9f00ba
:101c5000ea815700820020008a0078003002be002e
:101c60002003be0008007800490007003fb9970034
:101c7000f0006100030032000000e90001c3b3007e
:101c8000817478003fb99700e800610003003200da
:101c90000000e90001c2b30081747800480190009f
:101ca0000201e90000015100808044003fba970022
:101cb0008a0178000b007800f90107009b00900072
:101cc0000188a3000400320098009000810f5000aa
:101cd00001003d00010078004f05be004f04be002a
:101ce0000080fa0000000600ea874700889fbe00d7
:101cf0008a9fbe008e1f78000004780003007800e1
:101d00007287570084e2260055c72600049fbe0054
:101d1000c3962200030f78006c875700004feb003a
:101d200011059000a1049000910578000200e000e8
:101d30000200320002077800010037007287570066
:101d40000000e00002003a000e00780040ff0700ab
:101d50000a00e000030035008a0f50000100360041
:101d60000a0078000b0278008901780000017800f1
:101d70008e00780008007800c90107004f0778003e
:101d80004f05be004f04be00af00b10000000600ca
:101d9000f4874700889fbe008a9fbe008c9fbe00cc
:101da0008e1f78000605be000404be0081bf9f00a0
:101db00082b79f00f3b79f00b0009000e1b79f008b
:101dc0001301780092b79f009006900040009000a9
:101dd0000000e900000678000d00e00001003d0071
:101de0001d0020008040eb00efb19700817178006a
:101df0001e0020001f0037000c06e9000fb09700fe
:101e0000cf80de006109b900a0b79f00b1b79f0085
:101e1000c2b79f00d3b79f000203be000002be00fe
:101e20000800be000a01be000c050700000778008c
:101e30000e4078000043b000efb0970080707e0045
:101e40008d06e9000fb997000201e90082bf9f00eb
:101e50002fb29700bfb297004fb39700dfb3970040
:101e60000800be000a01be00f50407000205be001e
:101e70000004be000c00e0000d003400e00f540030
:101e8000e08f5c00e00f5d00e08f5d00daff3a005c
:101e90000d00e000d8ff3c008fb997000300e00080
:101ea000030034001fb097000018a300d2ff3a00cf
:101eb0000e00e00002003a00ffb097001140a100c0
:101ec0000c0078004f0778004f06be004f05be009b
:101ed0004f04be004f01b100000006000200fa00ee
:101ee000889fbe008a9fbe0000057800010478002c
:101ef0000200780018019000a80490009800780073
:101f0000b1bf9f00b80590000200e000020035005c
:101f10000110a100b1bf9f00ea815700a20020007c
:101f2000890078003002be002003be00080078005f
:101f300097ff0700480190000201e90000015100ed
:101f4000808045003fba9700890178000a00780038
:101f5000530107009a0090000188a300040032009a
:101f600098009000810f500001003d0001007800b2
:101f70004f05be004f04be000080fa0000000600be
:101f8000fa874700889fbe008a9fbe008c9fbe00d4
:101f90008e1f7800800478000104780082057800a4
:101fa000180190002805900018077800b8009000ec
:101fb0000200e000020035000e10a1000100370011
:101fc0001200200070006700e0b79f000900320097
:101fd0003b02be002b03be00e00f5200e08f5a0010
:101fe000e00f5b00e08f5b00020032008a86e900b0
:101ff000010037008a067800e8026700f5b79f0005
:10200000010032008d06e9003b02be002b03be003a
:10201000e4af9f00f5af9f0086b79f0097b79f0082
:10202000480690000c06e9000040eb0080707e003e
:10203000efb297007fb2970089037800810478009f
:10204000d8af9f00020478008bbf9f008a057800fc
:10205000034578002a0037000c06e9006fab9700b3
:102060006f006300e90f500002003c000003b00065
:10207000010037007005b0000a03fb001604b10030
:10208000f90f53000c003e00000378000650a0003a
:102090001606b100f90f530007003e00b4b79f00c9
:1020a000a5b79f00c7b79f004e030700cfb39700a7
:1020b000afb297003fb2970080747e000804e90039
:1020c0008d06e9006fa89700ffa897000fb1970051
:1020d0009fb19700460020008301d1000281d30008
:1020e0008180d3000080d3000603e900faff3a00a4
:1020f000e0af9f00f1af9f0082b79f0093b79f00b2
:10210000e10f56000f0034006fa89700ffa897005a
:102110000fb197009fb19700e00f5000e08f58007b
:10212000e00f5900e08f5900cbff3a000800e000b3
:10213000c9ff3c000d00e000020034000e18a300af
:10214000c5ff3a0089007800f4b79f008704780043
:102150005fac97008a4178000b0578008fbd97002f
:102160000500e000100032003b02be002b03be0061
:10217000e4af9f00f5af9f0086b79f0097b79f0021
:10218000e00f5200e08f5a00e00f5b00e08f5b0031
:10219000050032000c06e90083707e000c06e900a1
:1021a00000c3b30080707e00ffb297000500e0001e
:1021b000030032000c06e90000c2b30080707e000c
:1021c000480190000201e9000c0151008c804000a0
:1021d0000e0278008a01780009007800b00007003c
:1021e000990090000188a30004003200980090003c
:1021f000810f500001003d00010078004f0778007a
:102200004f06be004f05be004f04be00af01b10037
:10221000000006008201780001017800f1ff27002c
:10222000f702370084082000848f50001d00320020
:102230000d003c0014082000848f5000270032005d
:1022400002003c000408200004003700240820009d
:10225000848f50003400320044082000848f5000e6
:1022600043003a0036003700040a2000848f5000f3
:102270002700320004003c0004092000848f500035
:102280003b003a0028003700020c2000828f5000eb
:102290002f003200020f2000828f500034003a00dd
:1022a0002b0037009380e9000200e00005003200b7
:1022b000810978001102fb00cfa2de00612bb9007a
:1022c0002800370081097800114278000482fb0061
:1022d0008002eb006033b800220037001302780060
:1022e000e40052000200e00005003200810978009d
:1022f0001102be004fabde008603780019003700e4
:10230000810978001102be006033b8001500370063
:102310009380e9008109780011027800cfa2de00e5
:10232000612bb9000f00370093027800e88052005b
:10233000810978003102be002103be000900370088
:102340009380e9000200e00002003200f1ff370054
:102350009380e90081097800110278008002eb0087
:102360006033b8000498be000690be00100005005f
:102370000000050044082000848f50002500320032
:1023800008003c0014082000848f50001400320024
:1023900024082000848f500024003200040820000c
:1023a0000c00370004092000848f50001f00320009
:1023b00004003c0084082000848f500024003a0070
:1023c0000e003700040a2000848f500011003200f4
:1023d000040c2000848f50001d003a000d003700cf
:1023e0009380e90081097800910078000108780065
:1023f000cf91de008288be00140037009380e90090
:1024000081097800910078000108780082487800fe
:102410000e0037009380e900810978009100780070
:102420000108780082087800080037009380e900ee
:102430008109780091007800010878006112b900e4
:10244000612bb9008498be008690be001000050084
:1024500000000500889fbe0000047800480090003e
:1024600082047800808f54000100360080047800d8
:102470000901780058009000e8010700580090001a
:102480000900400050049800c80090008984500062
:10249000490498000048eb004f04be00000006000d
:1024a000f2874700889fbe008a9fbe008c9fbe00b7
:1024b0008e1f7800800478000105780002047800ff
:1024c000830578006107620002003a008b0f540018
:1024d00008003900080178008a00780009007800b7
:1024e000dcff07008b0f54000200390088057800dc
:1024f0001e003700088655000c017800f00f5600ca
:102500000100360002012000010220007e805700f9
:10251000c90107008c067800050037000201200081
:10252000fe80570009007800caff0700f0865600b9
:10253000ef8f5600f9ff3e004461de0000ff2f00e0
:102540000091b90002014600fe80570009007800a2
:10255000c0ff07000e00e00004003a000801780008
:102560008a00780009007800baff07000b007800a5
:102570004f0778004f06be004f05be004f04be0057
:102580002f01b1000000060000000500000005005a
:1025900000000500000178000040eb008080fb0097
:1025a0008180400003a9200063c278000404e00099
:1025b00003003a0010a9200060c078000000060067
:1025c00092017800934f520004003a0010a92000b5
:1025d00060c078000309e800010037000040e8000f
:1025e000ea4f5000edff360000000600f687470076
:1025f000889fbe008a9fbe008c9fbe008e1f780001
:10260000000578000104780083057800040678004e
:102610000000eb00c0b79f008080eb00d1b79f00a7
:10262000e0b79f00f2b79f000008200080bf9f0026
:1026300098007800010078008004eb00010037006a
:102640008904e800304178000204e0000300320011
:1026500053c2b300834f5100f9ff3a000900e00074
:1026600004003200090178000a00780079ff0700b1
:10267000188c44001807780050c2b3009e4f100019
:102680003f013a000e07e8000e0c780010003700fa
:10269000cfb097000100a0000b003700cfb097002b
:1026a0000110a00008003700cfb097000120a00063
:1026b00005003700cfb097000130a00002003700be
:1026c000cfb097000140a000c1b79f00000ce80008
:1026d0001800780090407800b2c2b30082cf50005a
:1026e000f1ff320007003c0002c2b30082cf50006d
:1026f000f0ff320032c2b30082cf500007003a0030
:10270000efff3700d2c2b30082cf5000e0ff3200ab
:1027100002c3b30082cf5000e0ff3200a2c2b30078
:1027200082cf50000d003a00000ce8001c80e90048
:10273000000e780010007800e0b79f000000e00075
:102740000f003d00cfb097000100a200c1b79f006d
:102750000000ea00e0b79f000900370096fc070080
:10276000e0b79f0001003700000ce8001800780077
:102770009000fb000103b100e98f5000faff360022
:102780004fb097000008a300020032000010a10023
:10279000c0b79f0018007800e1c2b30090cf1000ce
:1027a00016003a008000eb00d1b79f000000e8005f
:1027b000000c7800a1c2b30090cf100006003a00d0
:1027c000000ce8001c80e900000e78001000780082
:1027d000d0b79f000900370077fc0700d0b79f00f3
:1027e00001003700000ce800180078009000fb00a2
:1027f0000103b100e98f5000faff360008007800ad
:1028000064ff070080467800180078001000fb0085
:102810006d01070091062000810f50003800320042
:1028200012003c0041062000810f500034003200ad
:102830000a003c0011062000810f500020003200e9
:1028400031062000810f5000a0003200510220000c
:10285000810f5000bc003a00b40037007106200020
:10286000810f5000b8003c008800370001072000ad
:10287000810f50005c00320007003c00e1062000a0
:10288000810f50007a003200f1062000810f5000c5
:10289000ad003a003900370051072000810f500089
:1028a0002700320081072000810f500042003200d3
:1028b00031072000810f5000a3003a008f0037003d
:1028c0008d80fb000c01780000fe2f000f004000ff
:1028d000700107000000e000a80032001800780036
:1028e000000ce8009041780002fe2f000f0141002b
:1028f000f88057000a00780024ff07000e00370018
:102900008d80fb008c0178001200200000fe2f005b
:102910000f00400043fe07000000e0009700320077
:10292000180ce80002fe2f000f014100f88057004c
:102930000a0078005efc07008084440090003700a5
:102940008d80fb008c0178000001eb0000fe2f0061
:102950000f00400033fe07000000e0008700320057
:10296000180ce80002fe2f000f014100f88057000c
:102970000a00780059fd0700efff37008d80fb004b
:102980008c0178000001eb0000fe2f000f004000da
:1029900024fe07000000e00078003200180ce80078
:1029a00002fe2f000f014100f88057000a00780056
:1029b00098fc0700e0ff37008d80fb008c01780059
:1029c0000001eb0000fe2f000f00400015fe070085
:1029d0000000e0006900320018007800000ce800f8
:1029e000904178001c0037008c0178000001eb005a
:1029f000010f200000fe2f000f00400009fe07001d
:102a00000000e0005d003200180ce8000fb09700f5
:102a10009fb097002fb19700bfb19700e00f500013
:102a2000e08f5800e00f5900e08f590009003a008c
:102a3000cfb597006fb4970080a8200004fc070072
:102a40000b027800880178000001780081a820003e
:102a50004700370083c7b30002fe2f000f0141007b
:102a6000f88057000a00780045fd0700b2ff3700e4
:102a70000b8144008d80fb008c01780000fe2f004c
:102a80000f0040003bfe07003c0037008d80fb003c
:102a90000c01780000fe2f000f004000fd00070031
:102aa0000000e0003500320018007800000ce8005b
:102ab0009041780002fe2f000f014100f88057007e
:102ac0000a007800b1fe07009bff370000c8b30082
:102ad00080cf560029003a00180ce8001c80e9005d
:102ae000000e780010407800e0df9f001300200007
:102af000e2fd2f000f0141000800370000c8b300bd
:102b000080cf56001d003a00180ce8001c80e90038
:102b1000000e78008001eb0010017800f88057006b
:102b20000a00780070fc070083ff370000c8b3007c
:102b300080cf560011003a00180ce8004fb2970001
:102b4000efb19700080037000e0c78000000eb0092
:102b5000c0b79f00e0b79f000080eb00d0b79f0098
:102b60000002eb008401780012002000e1a82000a0
:102b70000a0078004afe07006fff3700180ce800d3
:102b8000090078004f0778004f06be004f05be00d1
:102b90004f04be006f01b100000006008200fa0081
:102ba000889fbe008a1f78000005780082047800a4
:102bb000c13f9f000004eb001000370009027800bd
:102bc00088017800a2f72f000f01410081f72f0044
:102bd0008f8040000a00780084fe07000800400053
:102be000880f500004003d00b004200030558800dc
:102bf0000084eb0004003700000478004f38970091
:102c00001004e000edff3a00080078004f0578005e
:102c10004f04be000080fa0000000600800178002a
:102c200002003700b15978000201e9000200e0001b
:102c3000fcff3a0000000600889fbe008a9fbe008d
:102c4000800478000200e0005b0032000140780060
:102c5000814c780082814400f1f99f00e20f51001d
:102c60005500360091449800a1449800e1f99f0076
:102c7000d1f99f00e60f51004f003600b144980093
:102c8000c1f99f00e80f51004b0036000905ea002a
:102c9000630565000a8444000a055100c1ff2f0046
:102ca000010565000080fb008000eb001210200091
:102cb00013102000c3000700008cbe000a0144006e
:102cc00060b99f0071b99f00e80f55003a003600c7
:102cd00020049800310498004004980051049800a2
:102ce00020b99f0031b99f0040b99f0051b99f00a2
:102cf000f80f550030003600600498007104980009
:102d0000000c9800110c9800200c9800310c9800d1
:102d1000400c9800510c980020b19f0031b19f00e9
:102d200040b19f0051b19f0060b19f0071b19f0001
:102d300000b99f0011b99f0064016400780141004f
:102d400002044400020555006011b8000203be00f1
:102d50000002be000403be006022b8000000720042
:102d600081807200020173008381730010003700bc
:102d7000009cbe000294be004004980051049800dc
:102d80006204980073049800000c9800110c9800dd
:102d9000220c9800330c9800400c9800510c9800bd
:102da000620c9800730c98000a02b1000802b0008f
:102db000ff0f5500eeff3e00090078004f05be00f2
:102dc0004f04be0000000600f1fb2f008080400091
:102dd000f98f500001003e000050a00000000600e6
:102de000f9ff3700f1f92f0080804000f98f500083
:102df00001003e00f005b20000000600f9ff3700b8
:102e0000f28747008e1f78000202780003017800e5
:102e10000000e000020032000007780001003700e7
:102e2000728757008002eb000100e00001003200d1
:102e30008102e90070805700060009000018eb00cd
:102e40000080eb0080bf9f002310200093bf9f00f5
:102e5000aebf9f00b1bf9f00c5bf9f000100e00053
:102e600003003d00b1042000315588000600370002
:102e7000004feb00eebf9f00debf9f008400780094
:102e800070805700220007004f0778002f01b10023
:102e900000000600881f7800000478000008200069
:102ea000808f50001700350010082000808f5000e0
:102eb0000b00340030082000808f500011003a00d1
:102ec0009200780068805000000978003002be004f
:102ed0002003be00049cbe000694be00070037001d
:102ee0009202780064805200000978001000be0051
:102ef00015000700009cbe000294be0010002000d8
:102f0000010037000000eb004f04780000000600cd
:102f10000200fa00881f780000047800e2bf9f00da
:102f200064815700080078001cff0700980090009b
:102f30000148a300010032000080eb004f0478003c
:102f40000080fa00000006008103780081f6070087
:102f50000001be006000b8000478a30013003a002e
:102f60006220e10015003e000d0039008301d10010
:102f70000281d3008180d3008301d1000281d3007c
:102f80008180d3008301d1000281d3008180d300ee
:102f90000538b000c42add00f300b200838172005e
:102fa00007f0a70003f0a0000000060083ff270041
:102fb000020020006110b900f9ff370003ff27006d
:102fc000f7ff3700020ab900001bb9000200b80081
:102fd000810042008100430000000600889fbe007f
:102fe0008a9fbe0030044200b0844a0030054b0086
:102ff00090854b006000b1000898be000a90be00aa
:103000000440e10005c8e10006d0e10007d8e10076
:1030100002003100680040001008e8004f05be00c3
:103020004f04be0000000600889fbe008a9fbe00bd
:103030003004be002005be000418540005985c0052
:1030400006185d0007985d00110020000440e100b3
:1030500005c8e10006d0e10007d8e1000100390011
:103060008000eb00108810004f05be004f04be002a
:10307000000006001200fa00889fbe008a9fbe0072
:103080008c9fbe00e0b79f00f1b79f0082bf9f00fa
:1030900093bf9f000605be000404be000000eb00c5
:1030a000d0b79f00c0b79f00b0b79f00a0b79f00e8
:1030b00090b79f00000678005fb19700cfb09700ef
:1030c000820141003fb097000200e00004003d0093
:1030d000370007007e805700c0ff0700030037005d
:1030e000330007007e805700cfff0700dfb6970050
:1030f0000d00e0000c0035006fb29700ffb29700a2
:103100000fbb97009fbb970010002000010020001c
:103110006011b80000027200818272000203730025
:10312000838373001b0007000c06e80001042000e5
:10313000810f5600e0ff3a000d00e00004003d0062
:103140000802be000a03be007e805700a3ff0700ee
:103150005fa897000000e00005003a001fb297004a
:10316000afb297003fb39700cfb3970009000700b5
:103170006fb09700ffb097000fb997009fb9970005
:103180004f06be004f05be004f04be000080fa008f
:10319000000006000100070000000600a4b79f0021
:1031a000b5b79f00c6b79f00d7b79f0000000600c5
:1031b0004f09de0082817100b3b79f004f01de002e
:1031c0008180400082807000a1b79f008fb097007f
:1031d0004f09de00000040000200700090b79f0021
:1031e0007fa897004f01de00818040008280700040
:1031f00081b79f000d0007004f3ade00000040003d
:1032000004007000f0af9f000800070004024200b5
:1032100085824a0006034b0087834b00dfff0700cf
:103220000802be000a03be00000006002fb297008d
:10323000bfb297004fb39700dfb3970000000600be
:10324000881f780018002000881f780089ff070079
:103250008f87e9004f04780000000600801feb0014
:1032600084ff07008f87e90000000600889fbe00ea
:103270008a9fbe00e00f5000e08f5800e00f590019
:10328000e08f59000c003d006044b8006055b80064
:103290000000540081805c0002015d0083815d00bc
:1032a000180020001500070008003d001800070066
:1032b0000004eb00050037000004eb000f000700de
:1032c00002003d001200070018002000dcff07008c
:1032d0000800e000060032006022b8006033b80049
:1032e0000000520081805a0002015b0083815b0074
:1032f0004f05be004f04be0000000600e00f520064
:10330000e08f5a00e00f5b00e08f5b0000000600da
:103310006044b8006055b8000402540085825c0027
:1033200006035d0087835d0000000600889fbe00e5
:103330008a9fbe008c1f7800e00f5000e08f58007d
:10334000e00f5900e08f59000d003d006044b800c7
:103350006055b8000000540081805c0002015d00ef
:1033600083815d001c0020000820e10009a8e10025
:103370000ab0e1000bb8e1000d003d000800370085
:103380000006eb00e00f5200e08f5a00e00f5b00f8
:10339000e08f5b0006003d006044b8006055b80057
:1033a0000402540085825c0006035d0087835d0093
:1033b000aaff07000c00e000060032006022b800ff
:1033c0006033b8000000520081805a0002015b00a7
:1033d00083815b004f0678004f05be004f04be009e
:0433e00000000600e3
:020000040000fa
:1033e400257500002c31000035300000300a000043
:1033f40000250000752c0000300a000000250000a4
:10340400752c0000257500002c250000752c00008b
:10341400257500002c250000752c00002575000082
:103424000a00000025640000200a000000000000db
:020000040000fa
:103434000000fa00881f7800ce06070031c5b300eb
:103444000000eb008606070031c5b3000000eb0066
:103454009a06070031c5b3000000eb00ae06070072
:1034640004090700d662a8000000200061412c0076
:10347400f0468800014788000000200061412c00cc
:1034840010478800214788006000b8003047880052
:1034940041478800f0468000014780000600200074
:1034a400c7112c0004002a00654b2c0002002000e8
:1034b40063532c00c20a0700504788006147880004
:1034c400f04680000147800006002400474b24009a
:1034d40004002000c5112c0002002a00634b2c00bc
:1034e400b70a07007047880081478800f0468000cb
:1034f4000147800006002d004753240004002400e7
:10350400454b240002002000c3112c00ac0a070024
:1035140090478800a1478800104780002147800019
:103524003687260097072c0004002600254a2c0025
:103534000200220023522c00a10a0700b047880091
:10354400c1478800104780002147800006002600fc
:10355400174a24003487260095072c000200260011
:10356400234a2c00960a0700d0478800e1478800c8
:10357400104780002147800006002a0017522400cb
:1035840004002600154a24003287260093072c00e5
:103594008b0a0700f0478800014888003047800004
:1035a40041478000c66b290007e92b00d4cc2c00ce
:1035b400f52c2c00a2992900f3342c00800a070072
:1035c4001048880021488800304780004147800027
:1035d400d6cc2c00e72c2400c46b290005e92b0071
:1035e400d2cc2c00f32c2c00750a0700304888003c
:1035f4004148880030478000414780000600200091
:10360400f7342400d4cc2c00e52c2400c26b290010
:1036140003e92b006a0a07005048880061488800c3
:10362400504780006147800018c0b3006011b800a3
:1036340084f407000000e00001003c000044eb00bb
:103644000804e00027003200b0478000c147800032
:1036540018c0b3006011b8007af407000000e0005d
:1036640001003c000044eb000804e0001d003200af
:10367400104880002148800018c0b3006011b800d1
:1036840070f407000000e00001003c000044eb007f
:103694000804e0001300320000002800e1402c0080
:1036a400704888008148880054478000654780003e
:1036b400b0478000c14780000001be000400be0086
:1036c40095f607000002be001048800021488000e3
:1036d4000001be000400be008ff60700d04b880036
:1036e400e14b8800504780006147800018c0b30058
:1036f4006011b80053f407000000e00001003c0032
:103704000044eb000804e00027003200b0478000ca
:10371400c147800018c0b3006011b80049f4070025
:103724000000e00001003c000044eb000804e0005d
:103734001d003200304880004148800018c0b300aa
:103744006011b8003ff407000000e00001003c00f5
:103754000044eb000804e0001300320060662a0015
:10376400213a2c0090488800a148880054478000e2
:1037740065478000b0478000c14780000001be005b
:103784000400be0064f607000002be00304880005a
:10379400414880000001be000400be005ef6070040
:1037a400f04b8800014c880050478000614780003e
:1037b40018c0b3006011b80022f407000000e00054
:1037c40001003c000044eb000804e0002700320044
:1037d400b0478000c147800018c0b3006011b80032
:1037e40018f407000000e00001003c000044eb0076
:1037f4000804e0001d003200504880006148800049
:1038040018c0b3006011b8000ef407000000e00017
:1038140001003c000044eb000804e0001300320007
:10382400a0702500112a2c00b0488800c1488800e7
:103834005447800065478000b0478000c14780003e
:103844000001be000400be0033f607000002be0003
:1038540050488000614880000001be000400be00a2
:103864002df60700104c8800214c8800504780003a
:103874006147800018c0b3006011b800f1f307007d
:103884000000e00001003c000044eb000804e000fc
:1038940027003200d0478000e147800018c0b30001
:1038a4006011b800e7f307000000e00001003c00ed
:1038b4000044eb000804e0001d00320010488000c2
:1038c4002148800018c0b3006011b800ddf3070080
:1038d4000000e00001003c000044eb000804e000ac
:1038e4001300320000002800e1402c00d04888007a
:1038f400e14888005447800065478000d047800035
:10390400e14780000001be000400be0002f607008b
:103914000002be0010488000214880000001be0063
:103924000400be00fcf50700304c8800414c8800c0
:10393400504780006147800018c0b3006011b80090
:10394400c0f307000000e00001003c000044eb006d
:103954000804e00027003200d0478000e1478000df
:1039640018c0b3006011b800b6f307000000e0000f
:1039740001003c000044eb000804e0001d0032009c
:10398400304880004148800018c0b3006011b8007e
:10399400acf307000000e00001003c000044eb0031
:1039a4000804e0001300320060662a00213a2c006b
:1039b400f04888000149880054478000654780002a
:1039c400d0478000e14780000001be000400be0033
:1039d400d1f507000002be00304880004148800055
:1039e4000001be000400be00cbf50700504c880067
:1039f400614c8800504780006147800018c0b300c4
:103a04006011b8008ff307000000e00001003c00e3
:103a14000044eb000804e00027003200d047800097
:103a2400e147800018c0b3006011b80085f30700b7
:103a34000000e00001003c000044eb000804e0004a
:103a44001d003200504880006148800018c0b30057
:103a54006011b8007bf307000000e00001003c00a7
:103a64000044eb000804e00013003200a0702500bd
:103a7400112a2c00104988002149880054478000ed
:103a840065478000d0478000e14780000001be0008
:103a94000400be00a0f507000002be0050488000ec
:103aa400614880000001be000400be009af50700d2
:103ab400704c8800814c880050478000614780002a
:103ac40018c0b3006011b8005ef307000000e00006
:103ad40001003c000044eb000804e0002700320031
:103ae400f04780000148800018c0b3006011b8009e
:103af40054f307000000e00001003c000044eb0028
:103b04000804e0001d0032001048800021488000b5
:103b140018c0b3006011b8004af307000000e000c9
:103b240001003c000044eb000804e00013003200f4
:103b340000002800e1402c003049880041498800f9
:103b44005447800065478000f047800001488000aa
:103b54000001be000400be006ff507000002be00b5
:103b640010488000214880000001be000400be000f
:103b740069f50700904c8800a14c880050478000ec
:103b84006147800018c0b3006011b8002df307002e
:103b94000000e00001003c000044eb000804e000e9
:103ba40027003200f04780000148800018c0b300ad
:103bb4006011b80023f307000000e00001003c009e
:103bc4000044eb000804e0001d003200304880008f
:103bd4004148800018c0b3006011b80019f3070011
:103be4000000e00001003c000044eb000804e00099
:103bf4001300320060662a00213a2c0050498800e4
:103c0400614988005447800065478000f047800080
:103c1400014880000001be000400be003ef507001c
:103c24000002be0030488000414880000001be0010
:103c34000400be0038f50700b04c8800c14c880071
:103c4400504780006147800018c0b3006011b8007d
:103c5400fcf207000000e00001003c000044eb001f
:103c64000804e00027003200f0478000014880008b
:103c740018c0b3006011b800f2f207000000e000c1
:103c840001003c000044eb000804e0001d00320089
:103c9400504880006148800018c0b3006011b8002b
:103ca400e8f207000000e00001003c000044eb00e3
:103cb4000804e00013003200a0702500112a2c0033
:103cc4007049880081498800544780006547800016
:103cd400f0478000014880000001be000400be00df
:103ce4000df507000002be005048800061488000c6
:103cf4000001be000400be0007f50700d04c880098
:103d0400e14c8800704780008147800018c0b300f0
:103d14006011b800cbf207000000e00001003c0095
:103d24000044eb000804e00027003200b0478000a4
:103d3400c147800018c0b3006011b800c1f2070089
:103d44000000e00001003c000044eb000804e00037
:103d54001d003200104880002148800018c0b300c4
:103d64006011b800b7f207000000e00001003c0059
:103d74000044eb000804e0001300320000002800b7
:103d840071372c0090498800a1498800744780004d
:103d940085478000b0478000c14780000001be0015
:103da4000400be00dcf407000002be0010488000de
:103db400214880000001be000400be00d6f40700c4
:103dc400f04c8800014d88007047800081478000d6
:103dd40018c0b3006011b8009af207000000e000b8
:103de40001003c000044eb000804e000270032001e
:103df400b0478000c147800018c0b3006011b8000c
:103e040090f207000000e00001003c000044eb00d9
:103e14000804e0001d003200304880004148800062
:103e240018c0b3006011b80086f207000000e0007b
:103e340001003c000044eb000804e00013003200e1
:103e4400f0fd240051032c00b0498800c1498800ca
:103e54007447800085478000b0478000c1478000d8
:103e64000001be000400be00abf407000002be0067
:103e740030488000414880000001be000400be00bc
:103e8400a5f40700104d8800214d8800704780007c
:103e94008147800018c0b3006011b80069f20700c0
:103ea4000000e00001003c000044eb000804e000d6
:103eb40027003200b0478000c147800018c0b3001b
:103ec4006011b8005ff207000000e00001003c0050
:103ed4000044eb000804e0001d003200504880005c
:103ee4006148800018c0b3006011b80055f20700a3
:103ef4000000e00001003c000044eb000804e00086
:103f040013003200d0cc2c0011372400d049880093
:103f1400e14988007447800085478000b0478000ed
:103f2400c14780000001be000400be007af407000f
:103f34000002be0050488000614880000001be00bd
:103f44000400be0074f40700304d8800414d880021
:103f5400704780008147800018c0b3006011b8002a
:103f640038f207000000e00001003c000044eb00d0
:103f74000804e00027003200d0478000e1478000b9
:103f840018c0b3006011b8002ef207000000e00072
:103f940001003c000044eb000804e0001d00320076
:103fa400104880002148800018c0b3006011b80098
:103fb40024f207000000e00001003c000044eb0094
:103fc4000804e000130032000000280071372c00c0
:103fd400f0498800014a88007447800085478000c2
:103fe400d0478000e14780000001be000400be000d
:103ff40049f407000002be001048800021488000f8
:104004000001be000400be0043f40700504d8800c8
:10401400614d8800704780008147800018c0b3005c
:104024006011b80007f207000000e00001003c0046
:104034000044eb000804e00027003200d047800071
:10404400e147800018c0b3006011b800fdf107001b
:104054000000e00001003c000044eb000804e00024
:104064001d003200304880004148800018c0b30071
:104074006011b800f3f107000000e00001003c000b
:104084000044eb000804e00013003200f0fd2400bb
:1040940051032c00104a8800214a8800744780008c
:1040a40085478000d0478000e14780000001be00c2
:1040b4000400be0018f407000002be00304880006f
:1040c400414880000001be000400be0012f4070055
:1040d400704d8800814d88007047800081478000c2
:1040e40018c0b3006011b800d6f107000000e0006a
:1040f40001003c000044eb000804e000270032000b
:10410400d0478000e147800018c0b3006011b800b8
:10411400ccf107000000e00001003c000044eb008b
:104124000804e0001d00320050488000614880000f
:1041340018c0b3006011b800c2f107000000e0002d
:1041440001003c000044eb000804e00013003200ce
:10415400d0cc2c0011372400304a8800414a880012
:104164007447800085478000d0478000e147800085
:104174000001be000400be00e7f307000002be0019
:1041840050488000614880000001be000400be0069
:10419400e1f30700904d8800a14d8800704780002e
:1041a4008147800018c0b3006011b800a5f1070072
:1041b4000000e00001003c000044eb000804e000c3
:1041c40027003200f04780000148800018c0b30087
:1041d4006011b8009bf107000000e00001003c0002
:1041e4000044eb000804e0001d0032001048800089
:1041f4002148800018c0b3006011b80091f1070095
:104204000000e00001003c000044eb000804e00072
:10421400130032000000280071372c00504a880037
:10422400614a88007447800085478000f047800019
:10423400014880000001be000400be00b6f3070080
:104244000002be0010488000214880000001be002a
:104254000400be00b0f30700b04d8800c14d8800d3
:10426400704780008147800018c0b3006011b80017
:1042740074f107000000e00001003c000044eb0082
:104284000804e00027003200f04780000148800065
:1042940018c0b3006011b8006af107000000e00024
:1042a40001003c000044eb000804e0001d00320063
:1042b400304880004148800018c0b3006011b80045
:1042c40060f107000000e00001003c000044eb0046
:1042d4000804e00013003200f0fd240051032c0018
:1042e400704a8800814a88007447800085478000ae
:1042f400f0478000014880000001be000400be00b9
:1043040085f307000002be00304880004148800069
:104314000001be000400be007ff30700d04d8800fa
:10432400e14d8800704780008147800018c0b300c9
:104334006011b80043f107000000e00001003c00f8
:104344000044eb000804e00027003200f04780003e
:104354000148800018c0b3006011b80039f10700ab
:104364000000e00001003c000044eb000804e00011
:104374001d003200504880006148800018c0b3001e
:104384006011b8002ff107000000e00001003c00bc
:104394000044eb000804e00013003200d0cc2c00f1
:1043a40011372400904a8800a14a8800744780008d
:1043b40085478000f0478000014880000001be006e
:1043c4000400be0054f307000002be005048800001
:1043d400614880000001be000400be004ef30700e7
:1043e400f04d8800014e880090478000a14780006e
:1043f40018c0b3006011b80012f107000000e0001b
:1044040001003c000044eb000804e00027003200f7
:10441400b0478000c147800018c0b3006011b800e5
:1044240008f107000000e00001003c000044eb003c
:104434000804e0001d00320010488000214880007c
:1044440018c0b3006011b800fef007000000e000df
:1044540001003c000044eb000804e00013003200bb
:104464000000200061292400b04a8800c14a880065
:1044740094478000a5478000b0478000c147800072
:104484000001be000400be0023f307000002be00ca
:1044940010488000214880000001be000400be00d6
:1044a4001df30700104e8800214e880090478000bd
:1044b400a147800018c0b3006011b800e1f0070004
:1044c4000000e00001003c000044eb000804e000b0
:1044d40027003200b0478000c147800018c0b300f5
:1044e4006011b800d7f007000000e00001003c00b4
:1044f4000044eb000804e0001d0032003048800056
:104504004148800018c0b3006011b800cdf0070026
:104514000000e00001003c000044eb000804e0005f
:1045240013003200a0992d00f1392400d04a8800ec
:10453400e14a880094478000a5478000b047800086
:10454400c14780000001be000400be00f2f2070073
:104554000002be0030488000414880000001be00d7
:104564000400be00ecf20700304e8800414e880083
:1045740090478000a147800018c0b3006011b800c4
:10458400b0f007000000e00001003c000044eb0034
:104594000804e00027003200b0478000c1478000d3
:1045a40018c0b3006011b800a6f007000000e000d6
:1045b40001003c000044eb000804e0001d00320050
:1045c400504880006148800018c0b3006011b800f2
:1045d4009cf007000000e00001003c000044eb00f8
:1045e4000804e0001300320030332100d1402400dd
:1045f400f04a8800014b880094478000a54780005a
:10460400b0478000c14780000001be000400be0026
:10461400c1f207000002be005048800061488000db
:104624000001be000400be00bbf20700504e88002b
:10463400614e880090478000a147800018c0b300f5
:104644006011b8007ff007000000e00001003c00aa
:104654000044eb000804e00027003200d04780004b
:10466400e147800018c0b3006011b80075f007007e
:104674000000e00001003c000044eb000804e000fe
:104684001d003200104880002148800018c0b3008b
:104694006011b8006bf007000000e00001003c006e
:1046a4000044eb000804e000130032000000200086
:1046b40061292400104b8800214b88009447800016
:1046c400a5478000d0478000e14780000001be007c
:1046d4000400be0090f207000002be0010488000f3
:1046e400214880000001be000400be008af20700d9
:1046f400704e8800814e880090478000a14780005a
:1047040018c0b3006011b8004ef007000000e000cc
:1047140001003c000044eb000804e00027003200e4
:10472400d0478000e147800018c0b3006011b80092
:1047340044f007000000e00001003c000044eb00ee
:104744000804e0001d003200304880004148800029
:1047540018c0b3006011b8003af007000000e00090
:1047640001003c000044eb000804e00013003200a8
:10477400a0992d00f1392400304b8800414b88006a
:1047840094478000a5478000d0478000e14780001f
:104794000001be000400be005ff207000002be007c
:1047a40030488000414880000001be000400be0083
:1047b40059f20700904e8800a14e8800904780006f
:1047c400a147800018c0b3006011b8001df00700b5
:1047d4000000e00001003c000044eb000804e0009d
:1047e40027003200d0478000e147800018c0b300a2
:1047f4006011b80013f007000000e00001003c0065
:104804000044eb000804e0001d0032005048800022
:104814006148800018c0b3006011b80009f00700b7
:104824000000e00001003c000044eb000804e0004c
:104834001300320030332100d1402400504b880053
:10484400614b880094478000a5478000d0478000d2
:10485400e14780000001be000400be002ef2070004
:104864000002be0050488000614880000001be0084
:104874000400be0028f20700b04e8800c14e880034
:1048840090478000a147800018c0b3006011b800b1
:10489400ecef07000000e00001003c000044eb00e6
:1048a4000804e00027003200f0478000014880003f
:1048b40018c0b3006011b800e2ef07000000e00088
:1048c40001003c000044eb000804e0001d0032003d
:1048d400104880002148800018c0b3006011b8005f
:1048e400d8ef07000000e00001003c000044eb00aa
:1048f4000804e000130032000000200061292400b5
:10490400704b8800814b880094478000a547800045
:10491400f0478000014880000001be000400be0092
:10492400fdf107000002be0010488000214880000d
:104934000001be000400be00f7f10700d04e88005d
:10494400e14e880090478000a147800018c0b30062
:104954006011b800bbef07000000e00001003c005c
:104964000044eb000804e00027003200f047800018
:104974000148800018c0b3006011b800b1ef07000f
:104984000000e00001003c000044eb000804e000eb
:104994001d003200304880004148800018c0b30038
:1049a4006011b800a7ef07000000e00001003c0020
:1049b4000044eb000804e00013003200a0992d002d
:1049c400f1392400904b8800a14b88009447800063
:1049d400a5478000f0478000014880000001be0028
:1049e4000400be00ccf107000002be003048800085
:1049f400414880000001be000400be00c6f107006b
:104a0400f04e8800014f880090478000a147800045
:104a140018c0b3006011b8008aef07000000e0007e
:104a240001003c000044eb000804e00027003200d1
:104a3400f04780000148800018c0b3006011b8003e
:104a440080ef07000000e00001003c000044eb00a0
:104a54000804e0001d0032005048800061488000d6
:104a640018c0b3006011b80076ef07000000e00042
:104a740001003c000044eb000804e0001300320095
:104a840030332100d1402400b04b8800c14b880052
:104a940094478000a5478000f047800001488000cb
:104aa4000001be000400be009bf107000002be002e
:104ab40050488000614880000001be000400be0030
:104ac40095f10700104f8800214f88000028ef005f
:104ad400150037000840800000408000c200dd005f
:104ae400e0902000008040001002be0000408000e2
:104af400c200dd00a0972000008040001000be002e
:104b04000001be000400be0083f10700c241dd00c5
:104b1400629e2000028141000089be0000408000a6
:104b24000000e8000040880000408000fa0f5000b8
:104b3400e8ff36006000b80090528800a152880057
:104b44006000b800b0528800c15288000028ef000d
:104b54001b00370000408000c200dd00609e200082
:104b6400008040001002be0090528000a1528000dc
:104b74000001be000400be00a3ef070090528800ad
:104b8400a152880000408000c200dd00a0972000f0
:104b9400008040001002be00b0528000c15280006c
:104ba4000001be000400be0097ef0700b052880069
:104bb400c1528800004080000000e80000408800e6
:104bc40000408000fa0f5000e2ff3600905280004f
:104bd400a152800002002000832c24004ef1070023
:104be4000002be00b0528000c15280000001be002d
:104bf4000400be0069f00700d0528800e15288002a
:104c0400d0528000e152800010ef070000007800cd
:104c14007000070000182d00018f20006e050700aa
:104c2400f7ff37000200fa00004f78000000000090
:104c34007110800000202000008060000000e0006f
:104c4400fbff3a001e00fb00801088000080fa0081
:104c5400000006000200fa00000f780010438000f4
:104c6400e10f500007003a009e1f7800209f2900a2
:104c7400801f7800b081200037f30700e4875700d5
:104c8400060037009e1f7800b09f2900801f78001f
:104c9400b081200030f30700e48757000028ef00bc
:104ca4001200370000000000711080000020200076
:104cb400008060000000e000fbff3a00014080003b
:104cc400b081200000804000104078000000fb000c
:104cd40080108800c05d2000010020003e05070010
:104ce400004080000000e80000408800b0812000ff
:104cf40056f307008000780000408000808f500049
:104d0400e8ff31000080fa00000006000c00fa0001
:104d1400000f7800110798002207980033079800c5
:104d24004407980055079800de009000811f780022
:104d3400ce009000811f7800be009000811f780093
:104d4400ae009000811f78009e009000811f7800c3
:104d54009e1f780010a02900801f7800b0812000d9
:104d6400fdf20700ee8757000028ef00120037001d
:104d7400000000007110800000202000008060000e
:104d84000000e000fbff3a0001408000b0812000f9
:104d940000804000104078000000fb008010880074
:104da400c05d2000010020000b05070000408000ca
:104db4000000e80000408800b081200023f30700d1
:104dc40001408000810f5000e9ff31000080fa00ab
:104dd400000006000200fa00000f78009e1f780011
:104de40040a12900801f7800b0812000daf207007a
:104df400e48757000028ef0012003700000000008d
:104e04007110800000202000008060000000e0009d
:104e1400fbff3a0001408000b08120000080400088
:104e2400104078000000fb0080108800c05d200066
:104e340001002000e8040700004080000000e800b2
:104e440000408800b081200000f30700014080008a
:104e5400810f5000e9ff31000080fa0000000600d5
:104e64000400fa00000f7800214798009e007800a3
:104e7400010c8800ae40900090c4b30080cf500075
:104e840003003a00cb82a900cb62a80009003700d6
:104e9400ae40900040c4b30080cf500003003a00fd
:104ea400cb62a900cb82a80002003700cb62a90024
:104eb400cb82a9000080fa00000006000400fa007a
:104ec400000f7800214798009e007800310c88007c
:104ed400ae40900090c4b30080cf500003003a006d
:104ee400cb22a900cb42a80009003700ae409000b5
:104ef40040c4b30080cf500003003a00cb42a90065
:104f0400cb22a80002003700cb22a900cb42a90083
:104f14000080fa00000006000400fa00000f780088
:104f2400214798009e007800610c8800ae409000f4
:104f340090c4b30080cf500003003a00e2a2a9005d
:104f4400e282a80009003700ae40900040c4b300dc
:104f540080cf500003003a00e282a900e2a2a80038
:104f640002003700e282a900e2a2a9000080fa0050
:104f7400000006000000fa00e0ff21004015880050
:104f8400c622ef00d222ef00ca22ef00d622ef00a1
:104f9400c162a800d302a800d322a800d202a900ab
:104fa400d222a900d242a900c602a800c722a900a1
:104fb400c742a900c762a900c782a900de82a9006e
:104fc400dea2a900ca22ef00d622ef00e222ef00ff
:104fd400006c2c00d10220007f0407000de2a80021
:104fe4000da2a9000d42a9000ce2a9000cc2a9005f
:104ff4000ca2a9006110800090ff2f0000806000c7
:10500400601088000c02a9000fe2a8000f62a9003a
:1050140071108000f0f32f00008060007010880091
:105024000ea2a9000e22a90000022000a0108800f0
:105034000de2a8000f42a8008d20a8008400a9005a
:105044008c00a8008200a9008600a9008e00a80098
:105054008220a90086e0a9008ee0a8008240a90071
:105064008c60a8008460a9008ea0a80086a0a90076
:105074008ec0a80086c0a900000220002008880075
:1050840021088000f0fc2f00008060000050a00088
:10509400200888000021ef000221ef0005e1a800ac
:1050a40000022000f00888001e61a900f1088000b9
:1050b400f0fc2f00008060000050a000f008880081
:1050c4001421ef001a21ef001fe1a80000022000c4
:1050d4000009880001098000f0fc2f0000806000b6
:1050e4000050a000000988001821ef001c21ef00e7
:1050f40021e1a800f0702200600888000621ef007a
:105104008221ef008021ef00210c800080ff2f001e
:10511400008060006000b300200c88008461a90056
:105124008821ef008621ef00510c800080ff2f00c2
:10513400008060006000b300500c88008a61a90000
:105144008e21ef008c21ef00810c800080ff2f0066
:10515400008060006000b300800c88009061a900aa
:105164001061a90081088000f0fc2f00008060001d
:10517400800888001021a90011e1a8008021ef0017
:105184008621ef008c21ef0011158000f0ff210033
:105194000080600010158800a682a90031158000e7
:1051a40000ff2f000080600030158800211580006a
:1051b40000fc2f0000806000f001b300201588007f
:1051c400a042a90001158000f0f12f0000806000ca
:1051d40000158800a1e2a8000080fa000000060083
:1051e4000a00fa00889fbe008a9fbe00200798002c
:1051f4003107980042079800d0cc2c00c1e423006a
:10520400008fbe00404080008000eb00ceed070020
:105214001e01be00c0ef07000004be001e01be0058
:105224000000200001f82300eeed07000005be0099
:10523400804080008000eb00c3ed07000001be0049
:105244000a00be00b4ef07000001be000800be0063
:10525400eded07009eed0700000078007040880027
:10526400504080008000eb00b7ed07001e01be0037
:10527400a9ef07000004be001e01be0000002000cc
:1052840001f82300d7ed07000005be00a040800010
:105294008000eb00aced07000001be000a00be0078
:1052a4009def07000001be000800be00d6ed070018
:1052b40087ed07000000780090408800604080007f
:1052c4008000eb00a0ed07001e01be0092ef070076
:1052d4000004be001e01be000000200001f82300ef
:1052e400c0ed07000005be00c04080008000eb0058
:1052f40095ed07000001be000a00be0086ef07001e
:105304000001be000800be00bfed070070ed0700fd
:1053140000007800b0408800704080008040880021
:1053240090408000a0408800b0408000c0408800c9
:10533400b040800000017800904080008000780038
:1053440070408000ce0290003e029000ae019000ba
:105354006efe07004f05be004f04be000080fa0039
:10536400000006000800fa00889fbe00200798008d
:1053740061479800ae009000b0042000808f500078
:1053840004003e0031c5b3000000eb00b4fe07008a
:105394005d00370040408000ae0090000080500067
:1053a4004044880040448000cf80de0063ed070065
:1053b400008fbe0020438000314380001e01be00e8
:1053c40055ef07000004be004443800055438000ad
:1053d400b0448000c14480000001be000400be004f
:1053e4004def07000001be000800be0086ed070077
:1053f4000004be006443800075438000d0448000f4
:10540400e14480000001be000400be0042ef07003a
:105414000001be000800be007bed07000002be00d4
:10542400f0528000015380000001be000400be0061
:1054340039ef07000002be0090448000a1448000c0
:105444000001be000400be006fed07007044880038
:1054540081448800704480008144800018c0b300f7
:1054640002002400c3612400f6ec07000000e00001
:1054740001003d000044eb000804e0000400320099
:1054840000002400c1612400704488008144880025
:10549400704480008144800018c0b3006011b800db
:1054a400e6ec07000000e000010034000044eb00db
:1054b4000804e000030032006000b8007044880073
:1054c40081448800704480008144800090448800b6
:1054d400a14488001e01be00b2448800c344880071
:1054e400b0448000c1448000d0448800e144880076
:1054f4007044800081448000f5ec070000007800cf
:10550400ee40900056fe07004f04be000080fa00f3
:10551400000006000800fa00889fbe0020079800db
:1055240061479800ae009000b0042000808f5000c6
:1055340004003e0031c5b3000000eb005ffe07002d
:105544005d00370050408000ae00900000805000a5
:105554005044880050448000cf80de00f7ec070000
:10556400008fbe0080438000914380001e01be0076
:10557400e9ee07000004be00a4438000b5438000a8
:1055840030458000414580000001be000400be009b
:10559400e1ee07000001be000800be001aed07009e
:1055a4000004be00c4438000d54380005045800001
:1055b400614580000001be000400be00d6ee070075
:1055c4000001be000800be000fed07000002be008f
:1055d40030538000415380000001be000400be002f
:1055e400cdee07000002be0010458000214580007a
:1055f4000001be000400be0003ed0700f044880073
:1056040001458800f04480000145800018c0b300c3
:1056140002002400c36124008aec07000000e000bb
:1056240001003d000044eb000804e00004003200e7
:1056340000002400c1612400f04488000145880072
:10564400f04480000145800018c0b3006011b80028
:105654007aec07000000e000010034000044eb0095
:105664000804e000030032006000b800f044880041
:1056740001458800f0448000014580001045880001
:10568400214588001e01be0032458800434588003c
:1056940030458000414580005045880061458800c0
:1056a400f04480000145800089ec07000000780088
:1056b400ee40900001fe07004f04be000080fa0097
:1056c400000006000800fa00889fbe00200798002a
:1056d40061479800ae009000b0042000808f500015
:1056e40004003e0031c5b3000000eb000afe0700d1
:1056f4005d00370060408000ae00900000805000e4
:105704006044880060448000cf80de008bec07009a
:10571400008fbe00e0438000f14380001e01be0004
:105724007dee07000004be000444800015448000a0
:10573400b0458000c14580000001be000400be00e9
:1057440075ee07000001be000800be00aeec0700c5
